:100000000C9446000C945D000C945D000C945D0013
:100010000C945D000C945D000C945D000C945D00EC
:100020000C945D000C945D000C945D000C945D00DC
:100030000C945D000C945D000C945D000C945D00CC
:100040000C945D000C945D000C945D000C945D00BC
:100050000C945D000C945D000C945D000C945D00AC
:100060000C945D000C945D000C945D000C945D009C
:100070000C945D000C945D000C945D000C945D008C
:100080000C945D000C945D000C945D0011241FBE67
:10009000CFEFD0E4DEBFCDBF11E0A0E0B1E0E0E6FD
:1000A000F2E000E00BBF02C007900D92AE30B10746
:1000B000D9F70E9488000C942E010C940000CF9375
:1000C000DF9300D01F92CDB7DEB789837B836A832D
:1000D00089818A3031F48A819B81BC018DE00E9444
:1000E0005F0080EC90E0FC018081882F90E08072BE
:1000F00099270097B1F386EC90E02981FC012083D9
:1001000080E090E00F900F900F90DF91CF910895D5
:10011000CF93DF93CDB7DEB727970FB6F894DEBF46
:100120000FBECDBF81E290E0FC01108282E290E040
:100130002FEFFC01208384E290E0FC01108285E235
:1001400090E02FEFFC01208387E290E0FC01108219
:1001500088E290E02FEFFC0120838AE290E02FEF0D
:10016000FC0120838BE290E0FC0110821B821A824A
:10017000198280E290E0FC018081282F30E083E248
:1001800090E0FC018081882F90E0280F391F86E2E3
:1001900090E0FC018081882F90E0820F931F9B8369
:1001A0008A8319828A819B818D38910510F081E0C4
:1001B000898380E290E0FC01208186E290E0FC01EE
:1001C00080818217B8F480E290E0FC018081282FC2
:1001D00030E086E290E0FC018081882F90E0A90168
:1001E000481B590BCA0181359105D4F08981826081
:1001F000898316C086E290E0FC018081282F30E0E0
:1002000080E290E0FC018081882F90E0A901481BEA
:10021000590BCA01813591051CF08981826089835F
:100220008A819B81807F93709D838C838C819D814B
:10023000929582958F7089279F708927880F991FC3
:10024000880F991F9F838E838E819981892B898343
:100250008BE290E02981FC0120838BCFF894FFCFC3
:0E02600000000002000000005F00000000002F
:00000001FF
